{
  "_format": "hh-sol-artifact-1",
  "contractName": "VibePayments",
  "sourceName": "contracts/VibePayments.sol",
  "abi": [
    {
      "inputs": [
        {
          "internalType": "uint256",
          "name": "initialFee",
          "type": "uint256"
        }
      ],
      "stateMutability": "nonpayable",
      "type": "constructor"
    },
    {
      "anonymous": false,
      "inputs": [
        {
          "indexed": true,
          "internalType": "address",
          "name": "payer",
          "type": "address"
        },
        {
          "indexed": false,
          "internalType": "uint256",
          "name": "amount",
          "type": "uint256"
        },
        {
          "indexed": false,
          "internalType": "uint256",
          "name": "timestamp",
          "type": "uint256"
        }
      ],
      "name": "MembershipPurchased",
      "type": "event"
    },
    {
      "inputs": [],
      "name": "membershipFee",
      "outputs": [
        {
          "internalType": "uint256",
          "name": "",
          "type": "uint256"
        }
      ],
      "stateMutability": "view",
      "type": "function"
    },
    {
      "inputs": [],
      "name": "owner",
      "outputs": [
        {
          "internalType": "address",
          "name": "",
          "type": "address"
        }
      ],
      "stateMutability": "view",
      "type": "function"
    },
    {
      "inputs": [],
      "name": "purchaseMembership",
      "outputs": [],
      "stateMutability": "payable",
      "type": "function"
    },
    {
      "inputs": [],
      "name": "withdraw",
      "outputs": [],
      "stateMutability": "nonpayable",
      "type": "function"
    }
  ],
  "bytecode": "0x608060405234801561001057600080fd5b5060405161079e38038061079e833981810160405281019061003291906100ba565b336000806101000a81548173ffffffffffffffffffffffffffffffffffffffff021916908373ffffffffffffffffffffffffffffffffffffffff16021790555080600181905550506100e7565b600080fd5b6000819050919050565b61009781610084565b81146100a257600080fd5b50565b6000815190506100b48161008e565b92915050565b6000602082840312156100d0576100cf61007f565b5b60006100de848285016100a5565b91505092915050565b6106a8806100f66000396000f3fe60806040526004361061003f5760003560e01c80633ccfd60b1461004457806347bbe8671461005b5780638da5cb5b14610065578063c713a28914610090575b600080fd5b34801561005057600080fd5b506100596100bb565b005b6100636101b2565b005b34801561007157600080fd5b5061007a61026a565b60405161008791906103c1565b60405180910390f35b34801561009c57600080fd5b506100a561028e565b6040516100b291906103f5565b60405180910390f35b60008054906101000a900473ffffffffffffffffffffffffffffffffffffffff1673ffffffffffffffffffffffffffffffffffffffff163373ffffffffffffffffffffffffffffffffffffffff1614610149576040517f08c379a000000000000000000000000000000000000000000000000000000000815260040161014090610493565b60405180910390fd5b60008054906101000a900473ffffffffffffffffffffffffffffffffffffffff1673ffffffffffffffffffffffffffffffffffffffff166108fc479081150290604051600060405180830381858888f193505050501580156101af573d6000803e3d6000fd5b50565b60015434146101f6576040517f08c379a00000000000000000000000000000000000000000000000000000000081526004016101ed90610525565b60405180910390fd5b3373ffffffffffffffffffffffffffffffffffffffff167f413aaf5825c2fed97aa5722773ec7af83b4d187d3b4966b5c600e4cae7c4ca90344260405161023e929190610545565b60405180910390a261026860405180606001604052806026815260200161064d6026913933610294565b565b60008054906101000a900473ffffffffffffffffffffffffffffffffffffffff1681565b60015481565b61032c82826040516024016102aa9291906105ed565b6040516020818303038152906040527f319af333000000000000000000000000000000000000000000000000000000007bffffffffffffffffffffffffffffffffffffffffffffffffffffffff19166020820180517bffffffffffffffffffffffffffffffffffffffffffffffffffffffff8381831617835250505050610330565b5050565b6103478161033f61034a61036b565b63ffffffff16565b50565b60006a636f6e736f6c652e6c6f679050600080835160208501845afa505050565b610376819050919050565b61037e61061d565b565b600073ffffffffffffffffffffffffffffffffffffffff82169050919050565b60006103ab82610380565b9050919050565b6103bb816103a0565b82525050565b60006020820190506103d660008301846103b2565b92915050565b6000819050919050565b6103ef816103dc565b82525050565b600060208201905061040a60008301846103e6565b92915050565b600082825260208201905092915050565b7f4f6e6c7920746865206f776e65722063616e2077697468647261772066756e6460008201527f7300000000000000000000000000000000000000000000000000000000000000602082015250565b600061047d602183610410565b915061048882610421565b604082019050919050565b600060208201905081810360008301526104ac81610470565b9050919050565b7f496e636f7272656374206665652073656e7420666f72206d656d62657273686960008201527f7000000000000000000000000000000000000000000000000000000000000000602082015250565b600061050f602183610410565b915061051a826104b3565b604082019050919050565b6000602082019050818103600083015261053e81610502565b9050919050565b600060408201905061055a60008301856103e6565b61056760208301846103e6565b9392505050565b600081519050919050565b60005b8381101561059757808201518184015260208101905061057c565b60008484015250505050565b6000601f19601f8301169050919050565b60006105bf8261056e565b6105c98185610410565b93506105d9818560208601610579565b6105e2816105a3565b840191505092915050565b6000604082019050818103600083015261060781856105b4565b905061061660208301846103b2565b9392505050565b7f4e487b7100000000000000000000000000000000000000000000000000000000600052605160045260246000fdfe257320686173207075726368617365642061207072656d69756d206d656d6265727368697021a2646970667358221220a9c4f3bc31c3cee5ae147b0534230b7b83b50d00c4a7029a6bc34e4fdf9120d864736f6c63430008140033",
  "linkReferences": {},
  "deployedLinkReferences": {}
}